{
  "contractName": "MinimalERC721",
  "abi": [
    {
      "inputs": [],
      "stateMutability": "nonpayable",
      "type": "constructor"
    },
    {
      "anonymous": false,
      "inputs": [
        {
          "indexed": true,
          "internalType": "address",
          "name": "owner",
          "type": "address"
        },
        {
          "indexed": true,
          "internalType": "address",
          "name": "approved",
          "type": "address"
        },
        {
          "indexed": true,
          "internalType": "uint256",
          "name": "tokenId",
          "type": "uint256"
        }
      ],
      "name": "Approval",
      "type": "event"
    },
    {
      "anonymous": false,
      "inputs": [
        {
          "indexed": true,
          "internalType": "address",
          "name": "owner",
          "type": "address"
        },
        {
          "indexed": true,
          "internalType": "address",
          "name": "operator",
          "type": "address"
        },
        {
          "indexed": false,
          "internalType": "bool",
          "name": "approved",
          "type": "bool"
        }
      ],
      "name": "ApprovalForAll",
      "type": "event"
    },
    {
      "anonymous": false,
      "inputs": [
        {
          "indexed": true,
          "internalType": "address",
          "name": "previousOwner",
          "type": "address"
        },
        {
          "indexed": true,
          "internalType": "address",
          "name": "newOwner",
          "type": "address"
        }
      ],
      "name": "OwnershipTransferred",
      "type": "event"
    },
    {
      "anonymous": false,
      "inputs": [
        {
          "indexed": false,
          "internalType": "uint256",
          "name": "tokenId",
          "type": "uint256"
        },
        {
          "components": [
            {
              "internalType": "address payable",
              "name": "account",
              "type": "address"
            },
            {
              "internalType": "uint96",
              "name": "value",
              "type": "uint96"
            }
          ],
          "indexed": false,
          "internalType": "struct LibPart.Part[]",
          "name": "royalties",
          "type": "tuple[]"
        }
      ],
      "name": "RoyaltiesSet",
      "type": "event"
    },
    {
      "anonymous": false,
      "inputs": [
        {
          "indexed": true,
          "internalType": "address",
          "name": "from",
          "type": "address"
        },
        {
          "indexed": true,
          "internalType": "address",
          "name": "to",
          "type": "address"
        },
        {
          "indexed": true,
          "internalType": "uint256",
          "name": "tokenId",
          "type": "uint256"
        }
      ],
      "name": "Transfer",
      "type": "event"
    },
    {
      "inputs": [
        {
          "internalType": "address",
          "name": "to",
          "type": "address"
        },
        {
          "internalType": "uint256",
          "name": "tokenId",
          "type": "uint256"
        }
      ],
      "name": "approve",
      "outputs": [],
      "stateMutability": "nonpayable",
      "type": "function"
    },
    {
      "inputs": [
        {
          "internalType": "address",
          "name": "owner",
          "type": "address"
        }
      ],
      "name": "balanceOf",
      "outputs": [
        {
          "internalType": "uint256",
          "name": "",
          "type": "uint256"
        }
      ],
      "stateMutability": "view",
      "type": "function",
      "constant": true
    },
    {
      "inputs": [
        {
          "internalType": "uint256",
          "name": "tokenId",
          "type": "uint256"
        }
      ],
      "name": "getApproved",
      "outputs": [
        {
          "internalType": "address",
          "name": "",
          "type": "address"
        }
      ],
      "stateMutability": "view",
      "type": "function",
      "constant": true
    },
    {
      "inputs": [
        {
          "internalType": "uint256",
          "name": "id",
          "type": "uint256"
        }
      ],
      "name": "getRaribleV2Royalties",
      "outputs": [
        {
          "components": [
            {
              "internalType": "address payable",
              "name": "account",
              "type": "address"
            },
            {
              "internalType": "uint96",
              "name": "value",
              "type": "uint96"
            }
          ],
          "internalType": "struct LibPart.Part[]",
          "name": "",
          "type": "tuple[]"
        }
      ],
      "stateMutability": "view",
      "type": "function",
      "constant": true
    },
    {
      "inputs": [
        {
          "internalType": "address",
          "name": "owner",
          "type": "address"
        },
        {
          "internalType": "address",
          "name": "operator",
          "type": "address"
        }
      ],
      "name": "isApprovedForAll",
      "outputs": [
        {
          "internalType": "bool",
          "name": "",
          "type": "bool"
        }
      ],
      "stateMutability": "view",
      "type": "function",
      "constant": true
    },
    {
      "inputs": [],
      "name": "name",
      "outputs": [
        {
          "internalType": "string",
          "name": "",
          "type": "string"
        }
      ],
      "stateMutability": "view",
      "type": "function",
      "constant": true
    },
    {
      "inputs": [],
      "name": "owner",
      "outputs": [
        {
          "internalType": "address",
          "name": "",
          "type": "address"
        }
      ],
      "stateMutability": "view",
      "type": "function",
      "constant": true
    },
    {
      "inputs": [
        {
          "internalType": "uint256",
          "name": "tokenId",
          "type": "uint256"
        }
      ],
      "name": "ownerOf",
      "outputs": [
        {
          "internalType": "address",
          "name": "",
          "type": "address"
        }
      ],
      "stateMutability": "view",
      "type": "function",
      "constant": true
    },
    {
      "inputs": [],
      "name": "renounceOwnership",
      "outputs": [],
      "stateMutability": "nonpayable",
      "type": "function"
    },
    {
      "inputs": [
        {
          "internalType": "address",
          "name": "from",
          "type": "address"
        },
        {
          "internalType": "address",
          "name": "to",
          "type": "address"
        },
        {
          "internalType": "uint256",
          "name": "tokenId",
          "type": "uint256"
        }
      ],
      "name": "safeTransferFrom",
      "outputs": [],
      "stateMutability": "nonpayable",
      "type": "function"
    },
    {
      "inputs": [
        {
          "internalType": "address",
          "name": "from",
          "type": "address"
        },
        {
          "internalType": "address",
          "name": "to",
          "type": "address"
        },
        {
          "internalType": "uint256",
          "name": "tokenId",
          "type": "uint256"
        },
        {
          "internalType": "bytes",
          "name": "_data",
          "type": "bytes"
        }
      ],
      "name": "safeTransferFrom",
      "outputs": [],
      "stateMutability": "nonpayable",
      "type": "function"
    },
    {
      "inputs": [
        {
          "internalType": "address",
          "name": "operator",
          "type": "address"
        },
        {
          "internalType": "bool",
          "name": "approved",
          "type": "bool"
        }
      ],
      "name": "setApprovalForAll",
      "outputs": [],
      "stateMutability": "nonpayable",
      "type": "function"
    },
    {
      "inputs": [],
      "name": "symbol",
      "outputs": [
        {
          "internalType": "string",
          "name": "",
          "type": "string"
        }
      ],
      "stateMutability": "view",
      "type": "function",
      "constant": true
    },
    {
      "inputs": [
        {
          "internalType": "uint256",
          "name": "tokenId",
          "type": "uint256"
        }
      ],
      "name": "tokenURI",
      "outputs": [
        {
          "internalType": "string",
          "name": "",
          "type": "string"
        }
      ],
      "stateMutability": "view",
      "type": "function",
      "constant": true
    },
    {
      "inputs": [
        {
          "internalType": "address",
          "name": "from",
          "type": "address"
        },
        {
          "internalType": "address",
          "name": "to",
          "type": "address"
        },
        {
          "internalType": "uint256",
          "name": "tokenId",
          "type": "uint256"
        }
      ],
      "name": "transferFrom",
      "outputs": [],
      "stateMutability": "nonpayable",
      "type": "function"
    },
    {
      "inputs": [
        {
          "internalType": "address",
          "name": "newOwner",
          "type": "address"
        }
      ],
      "name": "transferOwnership",
      "outputs": [],
      "stateMutability": "nonpayable",
      "type": "function"
    },
    {
      "inputs": [
        {
          "internalType": "address",
          "name": "_to",
          "type": "address"
        }
      ],
      "name": "mint",
      "outputs": [],
      "stateMutability": "nonpayable",
      "type": "function"
    },
    {
      "inputs": [
        {
          "internalType": "uint256",
          "name": "_tokenId",
          "type": "uint256"
        },
        {
          "internalType": "address payable",
          "name": "_royaltiesRecipientAddress",
          "type": "address"
        },
        {
          "internalType": "uint96",
          "name": "_percentageBasisPoints",
          "type": "uint96"
        }
      ],
      "name": "setRoyalties",
      "outputs": [],
      "stateMutability": "nonpayable",
      "type": "function"
    },
    {
      "inputs": [
        {
          "internalType": "uint256",
          "name": "_tokenId",
          "type": "uint256"
        },
        {
          "internalType": "uint256",
          "name": "_salePrice",
          "type": "uint256"
        }
      ],
      "name": "royaltyInfo",
      "outputs": [
        {
          "internalType": "address",
          "name": "receiver",
          "type": "address"
        },
        {
          "internalType": "uint256",
          "name": "royaltyAmount",
          "type": "uint256"
        }
      ],
      "stateMutability": "view",
      "type": "function",
      "constant": true
    },
    {
      "inputs": [
        {
          "internalType": "bytes4",
          "name": "interfaceId",
          "type": "bytes4"
        }
      ],
      "name": "supportsInterface",
      "outputs": [
        {
          "internalType": "bool",
          "name": "",
          "type": "bool"
        }
      ],
      "stateMutability": "view",
      "type": "function",
      "constant": true
    }
  ],
  "bytecode": "0x60806040523480156200001157600080fd5b506040805180820182526007815266135a5b9a5b585b60ca1b60208083019182528351808501909452600384526226a4a760e91b9084015281519192916200005c91600091620000eb565b50805162000072906001906020840190620000eb565b5050506200008f620000896200009560201b60201c565b62000099565b620001ce565b3390565b600680546001600160a01b038381166001600160a01b0319831681179093556040519116919082907f8be0079c531659141344cd1fd0a4f28419497f9722a3daafe3b4186f6b6457e090600090a35050565b828054620000f99062000191565b90600052602060002090601f0160209004810192826200011d576000855562000168565b82601f106200013857805160ff191683800117855562000168565b8280016001018555821562000168579182015b82811115620001685782518255916020019190600101906200014b565b50620001769291506200017a565b5090565b5b808211156200017657600081556001016200017b565b600181811c90821680620001a657607f821691505b60208210811415620001c857634e487b7160e01b600052602260045260246000fd5b50919050565b611c8e80620001de6000396000f3fe608060405234801561001057600080fd5b506004361061012c5760003560e01c806370a08231116100ad578063b88d4fde11610071578063b88d4fde14610294578063c87b56dd146102a7578063cad96cca146102ba578063e985e9c5146102da578063f2fde38b1461031657600080fd5b806370a082311461023f578063715018a6146102605780638da5cb5b1461026857806395d89b4114610279578063a22cb4651461028157600080fd5b806323b872dd116100f457806323b872dd146101c15780632a55205a146101d457806342842e0e146102065780636352211e146102195780636a6278421461022c57600080fd5b806301ffc9a71461013157806306fdde0314610159578063081812fc1461016e578063095ea7b314610199578063143094db146101ae575b600080fd5b61014461013f366004611813565b610329565b60405190151581526020015b60405180910390f35b61016161037c565b60405161015091906119d9565b61018161017c36600461184d565b61040e565b6040516001600160a01b039091168152602001610150565b6101ac6101a73660046117e7565b6104a8565b005b6101ac6101bc366004611866565b6105be565b6101ac6101cf366004611693565b61069c565b6101e76101e23660046118b4565b6106cd565b604080516001600160a01b039093168352602083019190915201610150565b6101ac610214366004611693565b6107d3565b61018161022736600461184d565b6107ee565b6101ac61023a36600461163d565b610865565b61025261024d36600461163d565b6108b2565b604051908152602001610150565b6101ac610939565b6006546001600160a01b0316610181565b61016161096f565b6101ac61028f3660046117b4565b61097e565b6101ac6102a23660046116d4565b61098d565b6101616102b536600461184d565b6109bf565b6102cd6102c836600461184d565b610acc565b60405161015091906119c6565b6101446102e836600461165a565b6001600160a01b03918216600090815260056020908152604080832093909416825291909152205460ff1690565b6101ac61032436600461163d565b610b5b565b60006001600160e01b0319821663656cb66560e11b141561034c57506001919050565b6001600160e01b0319821663152a902d60e11b141561036d57506001919050565b61037682610bf3565b92915050565b60606000805461038b90611b6b565b80601f01602080910402602001604051908101604052809291908181526020018280546103b790611b6b565b80156104045780601f106103d957610100808354040283529160200191610404565b820191906000526020600020905b8154815290600101906020018083116103e757829003601f168201915b5050505050905090565b6000818152600260205260408120546001600160a01b031661048c5760405162461bcd60e51b815260206004820152602c60248201527f4552433732313a20617070726f76656420717565727920666f72206e6f6e657860448201526b34b9ba32b73a103a37b5b2b760a11b60648201526084015b60405180910390fd5b506000908152600460205260409020546001600160a01b031690565b60006104b3826107ee565b9050806001600160a01b0316836001600160a01b031614156105215760405162461bcd60e51b815260206004820152602160248201527f4552433732313a20617070726f76616c20746f2063757272656e74206f776e656044820152603960f91b6064820152608401610483565b336001600160a01b038216148061053d575061053d81336102e8565b6105af5760405162461bcd60e51b815260206004820152603860248201527f4552433732313a20617070726f76652063616c6c6572206973206e6f74206f7760448201527f6e6572206e6f7220617070726f76656420666f7220616c6c00000000000000006064820152608401610483565b6105b98383610c43565b505050565b6006546001600160a01b031633146105e85760405162461bcd60e51b815260040161048390611a3e565b604080516001808252818301909252600091816020015b60408051808201909152600080825260208201528152602001906001900390816105ff579050509050818160008151811061063c5761063c611c01565b6020026020010151602001906001600160601b031690816001600160601b031681525050828160008151811061067457610674611c01565b60209081029190910101516001600160a01b0390911690526106968482610cb1565b50505050565b6106a63382610ecc565b6106c25760405162461bcd60e51b815260040161048390611a73565b6105b9838383610fc3565b6000828152600760209081526040808320805482518185028101850190935280835284938493929190849084015b8282101561074a57600084815260209081902060408051808201909152908401546001600160a01b0381168252600160a01b90046001600160601b0316818301528252600190920191016106fb565b5050505090506000815111156107c3578060008151811061076d5761076d611c01565b6020026020010151600001516127108260008151811061078f5761078f611c01565b6020026020010151602001516001600160601b0316866107af9190611b09565b6107b99190611af5565b92509250506107cc565b60008092509250505b9250929050565b6105b98383836040518060200160405280600081525061098d565b6000818152600260205260408120546001600160a01b0316806103765760405162461bcd60e51b815260206004820152602960248201527f4552433732313a206f776e657220717565727920666f72206e6f6e657869737460448201526832b73a103a37b5b2b760b91b6064820152608401610483565b6006546001600160a01b0316331461088f5760405162461bcd60e51b815260040161048390611a3e565b6108a18161089c60085490565b61115f565b6108af600880546001019055565b50565b60006001600160a01b03821661091d5760405162461bcd60e51b815260206004820152602a60248201527f4552433732313a2062616c616e636520717565727920666f7220746865207a65604482015269726f206164647265737360b01b6064820152608401610483565b506001600160a01b031660009081526003602052604090205490565b6006546001600160a01b031633146109635760405162461bcd60e51b815260040161048390611a3e565b61096d60006112a1565b565b60606001805461038b90611b6b565b6109893383836112f3565b5050565b6109973383610ecc565b6109b35760405162461bcd60e51b815260040161048390611a73565b610696848484846113c2565b6000818152600260205260409020546060906001600160a01b0316610a3e5760405162461bcd60e51b815260206004820152602f60248201527f4552433732314d657461646174613a2055524920717565727920666f72206e6f60448201526e3732bc34b9ba32b73a103a37b5b2b760891b6064820152608401610483565b6000610a7a60408051808201909152601e81527f68747470733a2f2f6d79646f6d61696e2e796f752f6d657461646174612f0000602082015290565b90506000815111610a9a5760405180602001604052806000815250610ac5565b80610aa4846113f5565b604051602001610ab592919061195a565b6040516020818303038152906040525b9392505050565b606060076000838152602001908152602001600020805480602002602001604051908101604052809291908181526020016000905b82821015610b5057600084815260209081902060408051808201909152908401546001600160a01b0381168252600160a01b90046001600160601b031681830152825260019092019101610b01565b505050509050919050565b6006546001600160a01b03163314610b855760405162461bcd60e51b815260040161048390611a3e565b6001600160a01b038116610bea5760405162461bcd60e51b815260206004820152602660248201527f4f776e61626c653a206e6577206f776e657220697320746865207a65726f206160448201526564647265737360d01b6064820152608401610483565b6108af816112a1565b60006001600160e01b031982166380ac58cd60e01b1480610c2457506001600160e01b03198216635b5e139f60e01b145b8061037657506301ffc9a760e01b6001600160e01b0319831614610376565b600081815260046020526040902080546001600160a01b0319166001600160a01b0384169081179091558190610c78826107ee565b6001600160a01b03167f8c5be1e5ebec7d5bd14f71427d1e84f3dd0314c0f7b2291e5b200ac8c7c3b92560405160405180910390a45050565b6000805b8251811015610e625760006001600160a01b0316838281518110610cdb57610cdb611c01565b6020026020010151600001516001600160a01b03161415610d3e5760405162461bcd60e51b815260206004820152601b60248201527f526563697069656e742073686f756c642062652070726573656e7400000000006044820152606401610483565b828181518110610d5057610d50611c01565b6020026020010151602001516001600160601b031660001415610db55760405162461bcd60e51b815260206004820181905260248201527f526f79616c74792076616c75652073686f756c6420626520706f7369746976656044820152606401610483565b828181518110610dc757610dc7611c01565b6020026020010151602001516001600160601b031682610de79190611add565b915060076000858152602001908152602001600020838281518110610e0e57610e0e611c01565b6020908102919091018101518254600181018455600093845292829020815191909201516001600160601b0316600160a01b026001600160a01b039091161791015580610e5a81611ba6565b915050610cb5565b506127108110610ec25760405162461bcd60e51b815260206004820152602560248201527f526f79616c747920746f74616c2076616c75652073686f756c64206265203c20604482015264031303030360dc1b6064820152608401610483565b6105b983836114f3565b6000818152600260205260408120546001600160a01b0316610f455760405162461bcd60e51b815260206004820152602c60248201527f4552433732313a206f70657261746f7220717565727920666f72206e6f6e657860448201526b34b9ba32b73a103a37b5b2b760a11b6064820152608401610483565b6000610f50836107ee565b9050806001600160a01b0316846001600160a01b03161480610f8b5750836001600160a01b0316610f808461040e565b6001600160a01b0316145b80610fbb57506001600160a01b0380821660009081526005602090815260408083209388168352929052205460ff165b949350505050565b826001600160a01b0316610fd6826107ee565b6001600160a01b03161461103a5760405162461bcd60e51b815260206004820152602560248201527f4552433732313a207472616e736665722066726f6d20696e636f72726563742060448201526437bbb732b960d91b6064820152608401610483565b6001600160a01b03821661109c5760405162461bcd60e51b8152602060048201526024808201527f4552433732313a207472616e7366657220746f20746865207a65726f206164646044820152637265737360e01b6064820152608401610483565b6110a7600082610c43565b6001600160a01b03831660009081526003602052604081208054600192906110d0908490611b28565b90915550506001600160a01b03821660009081526003602052604081208054600192906110fe908490611add565b909155505060008181526002602052604080822080546001600160a01b0319166001600160a01b0386811691821790925591518493918716917fddf252ad1be2c89b69c2b068fc378daa952ba7f163c4a11628f55a4df523b3ef91a4505050565b6001600160a01b0382166111b55760405162461bcd60e51b815260206004820181905260248201527f4552433732313a206d696e7420746f20746865207a65726f20616464726573736044820152606401610483565b6000818152600260205260409020546001600160a01b03161561121a5760405162461bcd60e51b815260206004820152601c60248201527f4552433732313a20746f6b656e20616c7265616479206d696e746564000000006044820152606401610483565b6001600160a01b0382166000908152600360205260408120805460019290611243908490611add565b909155505060008181526002602052604080822080546001600160a01b0319166001600160a01b03861690811790915590518392907fddf252ad1be2c89b69c2b068fc378daa952ba7f163c4a11628f55a4df523b3ef908290a45050565b600680546001600160a01b038381166001600160a01b0319831681179093556040519116919082907f8be0079c531659141344cd1fd0a4f28419497f9722a3daafe3b4186f6b6457e090600090a35050565b816001600160a01b0316836001600160a01b031614156113555760405162461bcd60e51b815260206004820152601960248201527f4552433732313a20617070726f766520746f2063616c6c6572000000000000006044820152606401610483565b6001600160a01b03838116600081815260056020908152604080832094871680845294825291829020805460ff191686151590811790915591519182527f17307eab39ab6107e8899845ad3d59bd9653f200f220920489ca2b5937696c31910160405180910390a3505050565b6113cd848484610fc3565b6113d984848484611530565b6106965760405162461bcd60e51b8152600401610483906119ec565b6060816114195750506040805180820190915260018152600360fc1b602082015290565b8160005b8115611443578061142d81611ba6565b915061143c9050600a83611af5565b915061141d565b60008167ffffffffffffffff81111561145e5761145e611c17565b6040519080825280601f01601f191660200182016040528015611488576020820181803683370190505b5090505b8415610fbb5761149d600183611b28565b91506114aa600a86611bc1565b6114b5906030611add565b60f81b8183815181106114ca576114ca611c01565b60200101906001600160f81b031916908160001a9053506114ec600a86611af5565b945061148c565b7f3fa96d7b6bcbfe71ef171666d84db3cf52fa2d1c8afdb1cc8e486177f208b7df8282604051611524929190611ac4565b60405180910390a15050565b60006001600160a01b0384163b1561163257604051630a85bd0160e11b81526001600160a01b0385169063150b7a0290611574903390899088908890600401611989565b602060405180830381600087803b15801561158e57600080fd5b505af19250505080156115be575060408051601f3d908101601f191682019092526115bb91810190611830565b60015b611618573d8080156115ec576040519150601f19603f3d011682016040523d82523d6000602084013e6115f1565b606091505b5080516116105760405162461bcd60e51b8152600401610483906119ec565b805181602001fd5b6001600160e01b031916630a85bd0160e11b149050610fbb565b506001949350505050565b60006020828403121561164f57600080fd5b8135610ac581611c2d565b6000806040838503121561166d57600080fd5b823561167881611c2d565b9150602083013561168881611c2d565b809150509250929050565b6000806000606084860312156116a857600080fd5b83356116b381611c2d565b925060208401356116c381611c2d565b929592945050506040919091013590565b600080600080608085870312156116ea57600080fd5b84356116f581611c2d565b9350602085013561170581611c2d565b925060408501359150606085013567ffffffffffffffff8082111561172957600080fd5b818701915087601f83011261173d57600080fd5b81358181111561174f5761174f611c17565b604051601f8201601f19908116603f0116810190838211818310171561177757611777611c17565b816040528281528a602084870101111561179057600080fd5b82602086016020830137600060208483010152809550505050505092959194509250565b600080604083850312156117c757600080fd5b82356117d281611c2d565b91506020830135801515811461168857600080fd5b600080604083850312156117fa57600080fd5b823561180581611c2d565b946020939093013593505050565b60006020828403121561182557600080fd5b8135610ac581611c42565b60006020828403121561184257600080fd5b8151610ac581611c42565b60006020828403121561185f57600080fd5b5035919050565b60008060006060848603121561187b57600080fd5b83359250602084013561188d81611c2d565b915060408401356001600160601b03811681146118a957600080fd5b809150509250925092565b600080604083850312156118c757600080fd5b50508035926020909101359150565b600081518084526020808501945080840160005b8381101561192357815180516001600160a01b031688528301516001600160601b031683880152604090960195908201906001016118ea565b509495945050505050565b60008151808452611946816020860160208601611b3f565b601f01601f19169290920160200192915050565b6000835161196c818460208801611b3f565b835190830190611980818360208801611b3f565b01949350505050565b6001600160a01b03858116825284166020820152604081018390526080606082018190526000906119bc9083018461192e565b9695505050505050565b602081526000610ac560208301846118d6565b602081526000610ac5602083018461192e565b60208082526032908201527f4552433732313a207472616e7366657220746f206e6f6e20455243373231526560408201527131b2b4bb32b91034b6b83632b6b2b73a32b960711b606082015260800190565b6020808252818101527f4f776e61626c653a2063616c6c6572206973206e6f7420746865206f776e6572604082015260600190565b60208082526031908201527f4552433732313a207472616e736665722063616c6c6572206973206e6f74206f6040820152701ddb995c881b9bdc88185c1c1c9bdd9959607a1b606082015260800190565b828152604060208201526000610fbb60408301846118d6565b60008219821115611af057611af0611bd5565b500190565b600082611b0457611b04611beb565b500490565b6000816000190483118215151615611b2357611b23611bd5565b500290565b600082821015611b3a57611b3a611bd5565b500390565b60005b83811015611b5a578181015183820152602001611b42565b838111156106965750506000910152565b600181811c90821680611b7f57607f821691505b60208210811415611ba057634e487b7160e01b600052602260045260246000fd5b50919050565b6000600019821415611bba57611bba611bd5565b5060010190565b600082611bd057611bd0611beb565b500690565b634e487b7160e01b600052601160045260246000fd5b634e487b7160e01b600052601260045260246000fd5b634e487b7160e01b600052603260045260246000fd5b634e487b7160e01b600052604160045260246000fd5b6001600160a01b03811681146108af57600080fd5b6001600160e01b0319811681146108af57600080fdfea26469706673582212203e76990e6d5d7fafe8628e56602db3e23fa050bd147f20e5f7d326f15d09062c64736f6c63430008060033",
  "immutableReferences": {},
  "source": "// SPDX-License-Identifier: MIT\n\npragma solidity ^0.8.0;\n\nimport \"@openzeppelin/contracts/token/ERC721/ERC721.sol\"; \nimport \"@openzeppelin/contracts/access/Ownable.sol\";\nimport \"@openzeppelin/contracts/utils/Counters.sol\";\nimport \"./@rarible/royalties/contracts/impl/RoyaltiesV2Impl.sol\";\nimport \"./@rarible/royalties/contracts/LibPart.sol\";\nimport \"./@rarible/royalties/contracts/LibRoyaltiesV2.sol\";\n\ncontract MinimalERC721 is ERC721,Ownable, RoyaltiesV2Impl {\n\nusing Counters for Counters.Counter;\nCounters.Counter private _tokenIdTracker;\n\nbytes4 private constant _INTERFACE_ID_ERC2981 = 0x2a55205a; // inserted from EIP 2981\n\nconstructor() ERC721(\"Minimal\" , \"MIN\" ){\n\n}// end of constructor\n\nfunction mint(address _to)  public onlyOwner {\n\n    super._mint(_to,_tokenIdTracker.current());\n    _tokenIdTracker.increment();\n}\n\nfunction setRoyalties (uint _tokenId, address payable _royaltiesRecipientAddress , uint96 _percentageBasisPoints) public onlyOwner {\n    LibPart.Part[] memory _royalties = new LibPart.Part[](1);\n    _royalties[0].value = _percentageBasisPoints;\n    _royalties[0].account = _royaltiesRecipientAddress;\n    _saveRoyalties(_tokenId , _royalties);\n}\n\nfunction royaltyInfo(  uint256 _tokenId,  uint256 _salePrice) external view returns (address receiver,uint256 royaltyAmount)\n{\n   LibPart.Part[] memory _royalties = royalties[_tokenId];\n   if(_royalties.length > 0) {\n       return (_royalties[0].account, (_salePrice*_royalties[0].value)/10000);\n   }\n   return( address(0),0);\n}\n\nfunction supportsInterface (bytes4 interfaceId) public view  virtual override(ERC721) returns (bool){\n\nif (interfaceId == LibRoyaltiesV2._INTERFACE_ID_ROYALTIES){\n      return true;\n    }\n\nif (interfaceId == _INTERFACE_ID_ERC2981){\n      return true;\n    }\n   return super.supportsInterface(interfaceId);\n}  \n\n\nfunction _baseURI() internal view  virtual  override returns (string memory) {\n    return \"https://mydomain.you/metadata/\";\n}\n\n\n\n}// end of contract",
  "sourcePath": "/home/moiz/Desktop/erc721-royalties-truffle/contracts/MinimalERC721.sol",
  "compiler": {
    "name": "solc",
    "version": "0.8.6+commit.11564f7e.Emscripten.clang"
  },
  "schemaVersion": "3.4.4",
  "updatedAt": "2022-02-16T12:30:52.934Z",
  "networkType": "ethereum",
  "devdoc": {
    "kind": "dev",
    "methods": {
      "approve(address,uint256)": {
        "details": "See {IERC721-approve}."
      },
      "balanceOf(address)": {
        "details": "See {IERC721-balanceOf}."
      },
      "getApproved(uint256)": {
        "details": "See {IERC721-getApproved}."
      },
      "isApprovedForAll(address,address)": {
        "details": "See {IERC721-isApprovedForAll}."
      },
      "name()": {
        "details": "See {IERC721Metadata-name}."
      },
      "owner()": {
        "details": "Returns the address of the current owner."
      },
      "ownerOf(uint256)": {
        "details": "See {IERC721-ownerOf}."
      },
      "renounceOwnership()": {
        "details": "Leaves the contract without owner. It will not be possible to call `onlyOwner` functions anymore. Can only be called by the current owner. NOTE: Renouncing ownership will leave the contract without an owner, thereby removing any functionality that is only available to the owner."
      },
      "safeTransferFrom(address,address,uint256)": {
        "details": "See {IERC721-safeTransferFrom}."
      },
      "safeTransferFrom(address,address,uint256,bytes)": {
        "details": "See {IERC721-safeTransferFrom}."
      },
      "setApprovalForAll(address,bool)": {
        "details": "See {IERC721-setApprovalForAll}."
      },
      "supportsInterface(bytes4)": {
        "details": "See {IERC165-supportsInterface}."
      },
      "symbol()": {
        "details": "See {IERC721Metadata-symbol}."
      },
      "tokenURI(uint256)": {
        "details": "See {IERC721Metadata-tokenURI}."
      },
      "transferFrom(address,address,uint256)": {
        "details": "See {IERC721-transferFrom}."
      },
      "transferOwnership(address)": {
        "details": "Transfers ownership of the contract to a new account (`newOwner`). Can only be called by the current owner."
      }
    },
    "version": 1
  },
  "userdoc": {
    "kind": "user",
    "methods": {},
    "version": 1
  }
}