{
  "contractName": "RoyaltiesV2Impl",
  "abi": [
    {
      "anonymous": false,
      "inputs": [
        {
          "indexed": false,
          "internalType": "uint256",
          "name": "tokenId",
          "type": "uint256"
        },
        {
          "components": [
            {
              "internalType": "address payable",
              "name": "account",
              "type": "address"
            },
            {
              "internalType": "uint96",
              "name": "value",
              "type": "uint96"
            }
          ],
          "indexed": false,
          "internalType": "struct LibPart.Part[]",
          "name": "royalties",
          "type": "tuple[]"
        }
      ],
      "name": "RoyaltiesSet",
      "type": "event"
    },
    {
      "inputs": [
        {
          "internalType": "uint256",
          "name": "id",
          "type": "uint256"
        }
      ],
      "name": "getRaribleV2Royalties",
      "outputs": [
        {
          "components": [
            {
              "internalType": "address payable",
              "name": "account",
              "type": "address"
            },
            {
              "internalType": "uint96",
              "name": "value",
              "type": "uint96"
            }
          ],
          "internalType": "struct LibPart.Part[]",
          "name": "",
          "type": "tuple[]"
        }
      ],
      "stateMutability": "view",
      "type": "function"
    }
  ],
  "bytecode": "0x608060405234801561001057600080fd5b50610199806100206000396000f3fe608060405234801561001057600080fd5b506004361061002b5760003560e01c8063cad96cca14610030575b600080fd5b61004361003e3660046100e4565b610059565b60405161005091906100fd565b60405180910390f35b600081815260208181526040808320805482518185028101850190935280835260609492939192909184015b828210156100d957600084815260209081902060408051808201909152908401546001600160a01b0381168252600160a01b90046bffffffffffffffffffffffff1681830152825260019092019101610085565b505050509050919050565b6000602082840312156100f657600080fd5b5035919050565b602080825282518282018190526000919060409081850190868401855b8281101561015657815180516001600160a01b031685528601516bffffffffffffffffffffffff1686850152928401929085019060010161011a565b509197965050505050505056fea26469706673582212201f725239783fe79cb32562482d227ad365abb1d724206ae8e0fc09fd7433e77f64736f6c63430008060033",
  "immutableReferences": {},
  "source": "// SPDX-License-Identifier: MIT\n\npragma solidity ^0.8.0;\n\n\nimport \"./AbstractRoyalties.sol\";\nimport \"../RoyaltiesV2.sol\";\n//import \"../IERC2981.sol\";\nimport \"../LibRoyalties2981.sol\";\n\ncontract RoyaltiesV2Impl is AbstractRoyalties, RoyaltiesV2 {\n\n    function getRaribleV2Royalties(uint256 id) override external view returns (LibPart.Part[] memory) {\n        return royalties[id];\n    }\n\n    function _onRoyaltiesSet(uint256 id, LibPart.Part[] memory _royalties) override internal {\n        emit RoyaltiesSet(id, _royalties);\n    }\n\n    /*\n    *Token (ERC721, ERC721Minimal, ERC721MinimalMeta, ERC1155 ) can have a number of different royalties beneficiaries\n    *calculate sum all royalties, but royalties beneficiary will be only one royalties[0].account, according to rules of IERC2981\n    */\n    // function royaltyInfo(uint256 id, uint256 _salePrice) override external view returns (address receiver, uint256 royaltyAmount) {\n    //     if (royalties[id].length == 0) {\n    //         receiver = address(0);\n    //         royaltyAmount = 0;\n    //         return(receiver, royaltyAmount);\n    //     }\n    //     LibPart.Part[] memory _royalties = royalties[id];\n    //     receiver = _royalties[0].account;\n    //     uint percent;\n    //     for (uint i = 0; i < _royalties.length; i++) {\n    //         percent += _royalties[i].value;\n    //     }\n    //     //don`t need require(percent < 10000, \"Token royalty > 100%\"); here, because check later in calculateRoyalties\n    //     royaltyAmount = percent * _salePrice / 10000;\n    // }\n}",
  "sourcePath": "/home/moiz/Desktop/erc721-royalties-truffle/contracts/@rarible/royalties/contracts/impl/RoyaltiesV2Impl.sol",
  "compiler": {
    "name": "solc",
    "version": "0.8.6+commit.11564f7e.Emscripten.clang"
  },
  "schemaVersion": "3.4.4",
  "updatedAt": "2022-02-16T10:52:11.984Z",
  "devdoc": {
    "kind": "dev",
    "methods": {},
    "version": 1
  },
  "userdoc": {
    "kind": "user",
    "methods": {},
    "version": 1
  }
}